:02000000ff00ff
:080002004c6174746963650030
:17000a00694345637562653220323031372e30382e32373934300069
:16002100506172743a2069434534304858314b2d56513130300002
:1b003700446174653a2053657020313620323031392030303a33323a35350078
:0200520000ffad
:040054007eaa997e69
:02005800510253
:02005a0001059e
:03005c00920020ef
:03005f0062014bf0
:0300620072009099
:0300650082000016
:02006800110085
:02006a00010192
:20006c00000000000000000000000000000000000000000000000000000000000000000074
:09008c000000000000000000006b
:2000950000000000000000000000000000000000000000000000000000000000000000004b
:0a00b5000000000000000000000041
:2000bf00000000000000000000000000000000000000000000000000000000000000000021
:0900df0000000000000000000018
:2000e8000000000000000000000000000000000000000000000000000000000000000000f8
:0a01080000000000000000000000ed
:200112000000000000000000000000000000000000000000000000000000000000000000cd
:09013200000000000000000000c4
:20013b000000000000000000000000000000000000000000000000000000000000000000a4
:0a015b00000000000000000000009a
:200165000000000000040000000000001000000000000040000000001000000000000040d6
:0901850000000000000100000070
:20018e00000000000000000000000000000000000000000000000000000000000000000051
:0a01ae000000000000000000000047
:2001b800000000000004000000000000100000000000004000000000100000000000004083
:0901d8000000000000010000001d
:2001e1000000000000000000000000000000000000000000000000000000000000000000fe
:0a02010000000000000000000000f3
:20020b000000000000000000000000000000000000000000000000000000000000000000d3
:09022b00000000000000000000ca
:200234000000000000000000000000000000000000000000000000000000000000000000aa
:0a02540000000000000000000000a0
:20025e00000000000000000000000000000000000000000000000000000000000000000080
:09027e0000000000000000000077
:20028700000000000000000000000000000000000000000000000000000000000000000057
:0a02a700000000000000000000004d
:2002b10000000000000000000000000000000000000000000000000000000000000000002d
:0902d10000000000000000000024
:2002da00000000000000000000000000000000000000000000000000000000000000000004
:0a02fa0000000000000000000000fa
:200304000000000000000000000000000000000000000000000000000000000000000000d9
:09032400000000000000000000d0
:20032d00000000000000000000000000000000000040000000000000000000000000000070
:0a034d0000000000000000000000a6
:20035700000000000000000000000000000000000000000000000000000000000000000086
:090377000000000000000000007d
:2003800000000000000000000000000000000000000000000000000000000000000000005d
:0a03a0000000000000000000000053
:2003aa00000000000000000000000000000000000000000000000000000000000000000033
:0903ca000000000000000000002a
:2003d30000000000000000000000000000000000000000000000000000000000000000000a
:0a03f3000000000000000000000000
:2003fd000002000000000000000000000000000000000000000000000000000000000000de
:09041d00000000000000000000d6
:200426000000000000000000000000000000000000000000000000000000000000000000b6
:0a04460000000000000000000000ac
:2004500000000000000000000000000000000000000000000000000000000000000000008c
:0904700000000000000000000083
:20047900000020000000000000000000000000000000000000000000000000000000000043
:0a0499000000000000000000000059
:2004a300000000000000000000000000000000000000000000000000000000000000000039
:0904c30000000000000000000030
:2004cc00000000000000000000000000000000000000000000000000000000000000000010
:0a04ec000000000000000000000006
:2004f6000000000000000000000000000000000000000000000000000000000000000000e6
:09051600000000000000000000dc
:20051f000000000000000000000000000000000000000000000000000000000000000000bc
:0a053f0000000000000000000000b2
:20054900000000000000000000000000000000000000000000000000000000000000000092
:0905690000000000000000000089
:20057200000000000000000000000000000000000000000000000000000000000000000069
:0a059200000000000000000000005f
:20059c004000000000000000000000000000000000000000000000000000000000000000ff
:0905bc0000000000000000000036
:2005c5000000200000000000000000000000000000000000000000000000000000000000f6
:0a05e500000000000000000000000c
:2005ef000000000000000000000000000000000000000000000000000000000000000000ec
:09060f00000000000000000000e2
:200618000800000000000000000000000000000000000000000000000000000000000000ba
:0a06380000000000000000000000b8
:20064200800000000000000000000000000000000000000000000000000000000000000018
:090662000000000000000000008f
:20066b0000000000000000000000000000000000000000000000000000000000000000006f
:0a068b000000000000000000000065
:20069500000300000000000000000000000000000000000000000000000000000000000042
:0906b5000000000000000000003c
:2006be0000000000000000000000000000000000000000000000000000000000000000001c
:0a06de000000000000000000000012
:2006e8000000000000000000000000000000000000000000000000000000000000000000f2
:09070800000000000000000000e8
:200711000000200000000000000000000000000000000000000000000000000000000000a8
:0a07310000000000000000000000be
:20073b0040000000000000000000000000000000000000000000000000000000000000005e
:09075b0000000000000000000095
:20076400000000000000000000000000000000000000000000000000000000000000000075
:0a078400000000000000000000006b
:20078e0000000000000000000000000000000000000000000000000000000000000000004b
:0907ae0000000000000000000042
:2007b70008000000000000000000000000000000000000000000000000000000000000001a
:0a07d7000000000000000000000018
:2007e100800000000000000000000000000000000000000000000000000000000000000078
:09080100000000000000000000ee
:20080a000000000000000000000000000000000000000000000000000000000000000000ce
:0a082a0000000000000000000000c4
:200834000000000000000000000000000000000000000000000000000000000000000000a4
:090854000000000000000000009b
:20085d0000000000000000000000000000000000004000000000000000000000000000003b
:0a087d000000000000000000000071
:20088700000000000000000000000000000000000000000000000000000000000000000051
:0908a70000000000000000000048
:2008b000000000000000000000000000000000000000000000000000000000000000000028
:0a08d000000000000000000000001e
:2008da000000000000000000000000000000000000000000000000000000000000000000fe
:0908fa00000000000000000000f5
:200903000000000000000000000000000000000000000000000000000000000000000000d4
:0a09230000000000000000000000ca
:20092d000002000000000000000000000000000000000000000000000000000000000000a8
:09094d00000000000000000000a1
:20095600000000000000000000000000000000000000000000000000000000000000000081
:0a0976000000000000000000000077
:20098000000000000000000000000000000000000000000000000000000000000000000057
:0909a0000000000000000000004e
:2009a90000002000000000000000000000000000000000000000000000000000000000000e
:0a09c9000000000000000000000024
:2009d300000000000000000000000000000000000000000000000000000000000000000004
:0909f300000000000000000000fb
:2009fc000000000000000000000000000000000000000000000000000000000000000000db
:0a0a1c0000000000000000000000d0
:200a26000000000000000000000000000000000000000000000000000000000000000000b0
:090a4600000000000000000000a7
:200a4f00000000000000000000000000000000000000000000000000000000000000000087
:0a0a6f00000000000000000000007d
:200a790000000000000000000000000000000000000000000000000000000000000000005d
:090a990000000000000000000054
:200aa200000000000000000000000000000000000000000000000000000000000000000034
:0a0ac200000000000000000000002a
:200acc004000000000000000000000000000000000000000000000000000000000000000ca
:090aec0000000000000000000001
:200af5000000200000000000000000000000000000000000000000000000000000000000c1
:0a0b150000000000000000000000d6
:200b1f000000000000000000000000000000000000000000000000000000000000000000b6
:090b3f00000000000000000000ad
:200b4800080000000000000000000000000000000000000000000000000000000000000085
:0a0b68000000000000000000000083
:200b72008000000000000000000000000000000000000000000000000000000000000000e3
:090b92000000000000000000005a
:200b9b0000000000000000000000000000000000000000000000000000000000000000003a
:0a0bbb000000000000000000000030
:200bc50000030000000000000000000000000000000000000000000000000000000000000d
:090be50000000000000000000007
:200bee000000000000000000000000000000000000000000000000000000000000000000e7
:0a0c0e0000000000000000000000dc
:200c18000000000000000000000000000000000000000000000000000000000000000000bc
:090c3800000000000000000000b3
:200c4100000020000000000000000000000000000000000000000000000000000000000073
:0a0c61000000000000000000000089
:200c6b00400000000000000000000000000000000000000000000000000000000000000029
:090c8b0000000000000000000060
:200c9400000000000000000000000000000000000000000000000000000000000000000040
:0a0cb4000000000000000000000036
:200cbe00000000000000000000000000000000000000000000000000000000000000000016
:090cde000000000000000000000d
:200ce7000800000000000000000000000000000000000000000000000000000000000000e5
:0a0d070000000000000000000000e2
:200d1100800000000000000000000000000000000000000000000000000000000000000042
:090d3100000000000000000000b9
:200d3a00000000000000000000000000000000000000000000000000000000000000000099
:0a0d5a00000000000000000000008f
:200d640000000000000000000000000000000000000000000000000000000000000000006f
:090d840000000000000000000066
:200d8d00000000000000000000000000000000000040000000000000000000000000000006
:0a0dad00000000000000000000003c
:200db70000000000000000000000000000000000000000000000000000000000000000001c
:090dd70000000000000000000013
:200de0000000000000000000000000000000000000000000000000000000000000000000f3
:0a0e000000000000000000000000e8
:200e0a000000000000000000000000000000000000000000000000000000000000000000c8
:090e2a00000000000000000000bf
:200e330000000000000000000000000000000000000000000000000000000000000000009f
:0a0e53000000000000000000000095
:200e5d00000200000000000000000000000000000000000000000000000000000000000073
:090e7d000000000000000000006c
:200e860000000000000000000000000000000000000000000000000000000000000000004c
:0a0ea6000000000000000000000042
:200eb000000000000000000000000000000000000000000000000000000000000000000022
:090ed00000000000000000000019
:200ed9000000200000000000000000000000000000000000000000000000000000000000d9
:0a0ef90000000000000000000000ef
:200f03000000000000000000000000000000000000000000000000000000000000000000ce
:090f2300000000000000000000c5
:200f2c000000000000000000000000000000000000000000000000000000000000000000a5
:0a0f4c00000000000000000000009b
:200f560000000000000000000000000000000000000000000000000000000000000000007b
:090f760000000000000000000072
:200f7f00000000000000000000000000000000000000000000000000000000000000000052
:0a0f9f000000000000000000000048
:200fa900000000000000000000000000000000000000000000000000000000000000000028
:090fc9000000000000000000001f
:200fd2000000000000000000000000000000000000000000000000000000000000000000ff
:0a0ff20000000000000000000000f5
:200ffc000000000000000000000000000000000000000000000000000000000000000000d5
:09101c00000000000000000000cb
:201025000000000000000000000000000000000000000000000000000000000000000000ab
:0a10450000000000000000000000a1
:20104f00000000000000000000000000000000000000000000000000000000000000000081
:09106f0000000000000000000078
:20107800000000000000000000000000000000000000000000000000000000000000000058
:0a109800000000000000000000004e
:2010a20000000000000000000000000000000000000000000000000000000000000000002e
:0910c20000000000000000000025
:2010cb00000000000000000000000000000000000000000000000000000000000000000005
:0a10eb0000000000000000000000fb
:2010f5000002000000000000000000000000000000000000000000000000000000000000d9
:09111500000000000000000000d1
:20111e000000000000000000000000000000000000000000000000000000000000000000b1
:0a113e0000000000000000000000a7
:20114800000000000000000000000000000000000000000000000000000000000000000087
:091168000000000000000000007e
:2011710000002000000000000000000000000000000000000000000000000000000000003e
:0a1191000000000000000000000054
:20119b00000000000000000000000000000000000000000000000000000000000000000034
:0911bb000000000000000000002b
:2011c40000000000000000000000000000000000000000000000000000000000000000000b
:0a11e4000000000000000000000001
:2011ee000000000000000000000000000000000000000000000000000000000000000000e1
:09120e00000000000000000000d7
:201217000000000000000000000000000000000000000000000000000000000000000000b7
:0a12370000000000000000000000ad
:2012410000000000000000000000000000000000000000000000000000000000000000008d
:0912610000000000000000000084
:20126a00000000000000000000000000000000000000000000000000000000000000000064
:0a128a00000000000000000000005a
:2012940000000000000000000000000000000000000000000000000000000000000000003a
:0912b40000000000000000000031
:2012bd000000000000000000000000000000000000400000000000000000000000000000d1
:0a12dd000000000000000000000007
:2012e7000000000000000000000000000000000000000000000000000000000000000000e7
:09130700000000000000000000dd
:201310000000000000000000000000000000000000000000000000000000000000000000bd
:0a13300000000000000000000000b3
:20133a00000000000000000000000000000000000000000000000000000000000000000093
:09135a000000000000000000008a
:2013630000000000000000000000000000000000000000000000000000000000000000006a
:0a1383000000000000000000000060
:20138d0000020000000000000000000000000000000000000000000000000000000000003e
:0913ad0000000000000000000037
:2013b600000000000000000000000000000000000000000000000000000000000000000017
:0a13d600000000000000000000000d
:2013e0000000000000000000000000000000000000000000000000000000000000000000ed
:09140000000000000000000000e3
:201409000000200000000000000000000000000000000000000000000000000000000000a3
:0a14290000000000000000000000b9
:20143300000000000000000000000000000000000000000000000000000000000000000099
:0914530000000000000000000090
:20145c00000000000000000000000000000000000000000000000000000000000000000070
:0a147c000000000000000000000066
:20148600000000000000000000000000000000000000000000000000000000000000000046
:0914a6000000000000000000003d
:2014af0000000000000000000000000000000000000000000000000000000000000000001d
:0a14cf000000000000000000000013
:2014d9000000000000000000000000000000000000000000000000000000000000000000f3
:0914f900000000000000000000ea
:201502000000000000000000000000000000000000000000000000000000000000000000c9
:0a15220000000000000000000000bf
:20152c0000000000000000000000000000000000000000000000000000000000000000009f
:09154c0000000000000000000096
:20155500000000000000000000000000000000000000000000000000000000000000000076
:0a157500000000000000000000006c
:20157f0000000000000000000000000000000000000000000000000000000000000000004c
:09159f0000000000000000000043
:2015a800000000000000000000000000000000000000000000000000000000000000000023
:0a15c8000000000000000000000019
:2015d2000000000000000000000000000000000000000000000000000000000000000000f9
:0915f200000000000000000000f0
:2015fb000000000000000000000000000000000000000000000000000000000000000000d0
:0a161b0000000000000000000000c5
:201625000002000000000000000000000000000000000000000000000000000000000000a3
:091645000000000000000000009c
:20164e0000000000000000000000000000000000000000000000000000000000000000007c
:0a166e000000000000000000000072
:20167800000000000000000000000000000000000000000000000000000000000000000052
:0916980000000000000000000049
:2016a100000020000000000000000000000000000000000000000000000000000000000009
:0a16c100000000000000000000001f
:2016cb000000000000000000000000000000000000000000000000000000000000000000ff
:0916eb00000000000000000000f6
:2016f4000000000000000000000000000000000000000000000000000000000000000000d6
:0a17140000000000000000000000cb
:20171e000000000000000000000000000000000000000000000000000000000000000000ab
:09173e00000000000000000000a2
:20174700000000000000000000000000000000000000000000000000000000000000000082
:0a1767000000000000000000000078
:20177100000000000000000000000000000000000000000000000000000000000000000058
:091791000000000000000000004f
:20179a0000000000000000000000000000000000000000000000000000000000000000002f
:0a17ba000000000000000000000124
:0217c400000023
:0217c60011010f
:0217c80001011d
:2017ca000000000000000000000000000000000000000000000000000000000000000000ff
:0917ea00000000000000000000f6
:2017f3000000000000000000000000000000000000000000000000000000000000000000d6
:0a18130000000000000000000000cb
:20181d000000000000000000000000000000000000000000000000000000000000000000ab
:09183d0000000040000000000062
:20184600000000000000000000000000000000000000000000000000000000000000000082
:0a1866000000000000000000000078
:20187000000000000000000000000000000000000000000000000000000000000000000058
:091890000000000000000000004f
:2018990000000000000000000000000000000000000000000000000000000000000000002f
:0a18b9000000000000000000000025
:2018c300000000000004000000000000100000000000004000000000100000000000004061
:0918e300000000000000000000fc
:2018ec000000000000000000000000000000000000000000000000000000000000000000dc
:0a190c0000000000000000000000d1
:2019160000000000000400000000000010000000000000400000000010000000000000400d
:09193600000000000000000000a8
:20193f00000000000000000000000000000000000000000000000000000000000000000088
:0a195f00000000000000000000007e
:2019690000000000000000000000000000000000000000000000000000000000000000005e
:0919890000000000000000000055
:20199200000000000000000000000000000000000000000000000000000000000000000035
:0a19b200000000000000000000002b
:2019bc0000000000000000000000000000000000000000000000000000000000000000000b
:0919dc0000000000000000000002
:2019e5000000000000000000000000000000000000000000000000000000000000000000e2
:0a1a05000000000400004000000093
:201a0f000000000000000000000000000000000000000000000000000000000000000000b7
:091a2f00000000000001000000ad
:201a380000000000000000000000000000000000000000000000000000000000000000008e
:0a1a58000000000000000000000084
:201a6200000000000000000000000000000000000000000000000000000000000000000064
:091a82000000000000000000005b
:201a8b0000000000000000000000000000000000000000000000000000000000000000003b
:0a1aab000000000000000000000031
:201ab500000000000000000000000000000000000000000000000000000000000000000011
:091ad50000000000000000000008
:201ade000000000000000000000000000000000000000000000000000000000000000000e8
:0a1afe0000000000000000000000de
:201b08000000000000000000000000000000000000000000000000000000000000000000bd
:091b2800000000000000000000b4
:201b3100000000000000000000000000000000000000000000000000000000000000000094
:0a1b5100000000000000000000008a
:201b5b00000200000000000000000000000000000000000000000000000000000000000068
:091b7b0000000000000000000061
:201b8400000000000000000000000000000000000000000000000000000000000000000041
:0a1ba4000000000000000000000037
:201bae00000000000000000000000000000000000000000000000000000000000000000017
:091bce000000000000000000000e
:201bd7000000200000000000000000000000000000000000000000000000000000000000ce
:0a1bf70000000000000000000000e4
:201c01000000000000000000000000000000000000000000000000000000000000000000c3
:091c2100000000000000000000ba
:201c2a0000000000000000000000000000000000000000000000000000000000000000009a
:0a1c4a000000000000000000000090
:201c5400000000000000000000000000000000000000000000000000000000000000000070
:091c740000000000000000000067
:201c7d00000000000000000000000000000000000000000000000000000000000000000047
:0a1c9d00000000000000000000003d
:201ca70000000000000000000000000000000000000000000000000000000000000000001d
:091cc70000000000000000000014
:201cd0000000000000000000000000000000000000000000000000000000000000000000f4
:0a1cf00000000000000000000000ea
:201cfa000000000000000000000000000000000000000000000000000000000000000000ca
:091d1a00000000000000000000c0
:201d23000000000000000000000000000000000000000000000000000000000000000000a0
:0a1d43000000000000000000000096
:201d4d00000000000000000000000000000000000000000000000000000000000000000076
:091d6d000000000000000000006d
:201d760000000000000000000000000000000000000000000000000000000000000000004d
:0a1d96000000000000000000000043
:201da000000000000000000000000000000000000000000000000000000000000000000023
:091dc0000000000000000000001a
:201dc9000000000000000000000000000000000000000000000000000000000000000000fa
:0a1de90000000000000000000000f0
:201df3000002000000000000000000000000000000000000000000000000000000000000ce
:091e1300000000000000000000c6
:201e1c000000000000000000000000000000000000000000000000000000000000000000a6
:0a1e3c00000000000000000000009c
:201e460000000000000000000000000000000000000000000000000000000000000000007c
:091e660000000000000000000073
:201e6f00000020000000000000000000000000000000000000000000000000000000000033
:0a1e8f000000000000000000000049
:201e9900000000000000000000000000000000000000000000000000000000000000000029
:091eb90000000000000000000020
:201ec200000000000000000000000000000000000000000000000000000000000000000000
:0a1ee20000000000000000000000f6
:201eec000000000000000000000000000000000000000000000000000000000000000000d6
:091f0c00000000000000000000cc
:201f15000000000000000000000000000000000000000000000000000000000000000000ac
:0a1f350000000000000000000000a2
:201f3f0000000000000000000000000000000000040000000000000000000000000000007e
:091f5f0000000000000000000079
:201f6800000000000000000000000000000000000000000000000000000000000000000059
:0a1f8800000000000000000000004f
:201f920000000000000000000000000000000000000000000000000000000000000000002f
:091fb20000000000000000000026
:201fbb00000000000000000000000000000000000000000000000000000000000000000006
:0a1fdb0000000000000000000000fc
:201fe5000000000000000000000000000000000000000000000000000000000000000000dc
:09200500000000000000000000d2
:20200e000000000000000000000000000000000000000000000000000000000000000000b2
:0a202e0000000000000000000000a8
:20203800000000000000000000000000000000000000000000000000000000000000000088
:092058000000000000000000007f
:2020610000000000000000000000000000000000000000000000000000000000000000005f
:0a2081000000000000000000000055
:20208b00000200000000000000000000000000000000000000000000000000000000000033
:0920ab000000000000000000002c
:2020b40000000000000000000000000000000000000000000000000000000000000000000c
:0a20d4000000000000000000000002
:2020de000000000000000000000000000000000000000000000000000000000000000000e2
:0920fe00000000000000000000d9
:20210700000020000000000000000000000000000000000000000000000000000000000098
:0a21270000000000000000000000ae
:2021310000000000000000000000000000000000000000000000000000000000000000008e
:0921510000000000000000000085
:20215a00000000000000000000000000000000000000000000000000000000000000000065
:0a217a00000000000000000000005b
:2021840000000000000000000000000000000000000000000000000000000000000000003b
:0921a40000000000000000000032
:2021ad00000000000000000000000000000000000000000000000000000000000000000012
:0a21cd000000000000000000000008
:2021d7000000000000000000000000000000000000000000000000000000000000000000e8
:0921f700000000000000000000df
:202200000000000000000000000000000000000000000000000000000000000000000000be
:0a22200000000000000000000000b4
:20222a00000000000000000000000000000000000000000000000000000000000000000094
:09224a000000000000000000008b
:2022530000000000000000000000000000000000000000000000000000000000000000006b
:0a2273000000000000000000000061
:20227d00000000000000000000000000000000000000000000000000000000000000000041
:09229d0000000000000000000038
:2022a600000000000000000000000000000000000000000000000000000000000000000018
:0a22c600000000000000000000000e
:2022d0000000000000000000000000000000000000000000000000000000000000000000ee
:0922f000000000000000000000e5
:2022f9000000000000000000000000000000000000000000000000000000000000000000c5
:0a23190000000000000000000000ba
:20232300000200000000000000000000000000000000000000000000000000000000000098
:0923430000000000000000000091
:20234c00000000000000000000000000000000000000000000000000000000000000000071
:0a236c000000000000000000000067
:20237600000000000000000000000000000000000000000000000000000000000000000047
:092396000000000000000000003e
:20239f000000200000000000000000000000000000000000000000000000000000000000fe
:0a23bf000000000000000000000014
:2023c9000000000000000000000000000000000000000000000000000000000000000000f4
:0923e900000000000000000000eb
:2023f2000800000000000000000000000000000000000000000000000000000000000000c3
:0a24120000000000000000000000c0
:20241c00800000000000000000000000000000000000000000000000000000000000000020
:09243c0000000000000000000097
:20244500000000000000000000000000000000000000000000000000000000000000000077
:0a246500000000000000000000006d
:20246f00000200000000000000000000000000000400000000000000000000000000000047
:09248f0000000000000000000044
:20249800040000000000000000000000000000000000000000000000000000000000000020
:0a24b800000000000000000000001a
:2024c2000000000000000000000000000000000000000000000000000000000000000000fa
:0924e200000000000000000000f1
:2024eb000800000000000000000000000000000000000000000000000000000000000000c9
:0a250b0000000000000000000000c6
:20251500800000000000000000000000000000000000000000000000000000000000000026
:092535000000000000000000009d
:20253e0000000000000000000000000000000000000000000000000000000000000000007d
:0a255e000000000000000000000073
:20256800000000000000000000000000000000000000000000000000000000000000000053
:092588000000000000000000004a
:20259100040000000000000000000000000000000000000000000000000000000000000026
:0a25b1000000000000000000000020
:2025bb000002000000000000000000000000000000000000000000000000000000000000fe
:0925db00000000000000000000f7
:2025e4000000000000000000000000000000000000000000000000000000000000000000d7
:0a26040000000000000000000000cc
:20260e000000000000000000000000000000000000000000000000000000000000000000ac
:09262e00000000000000000000a3
:20263700000030000000000000000000000000000000000000000000000000000000000053
:0a2657000000000000000000000079
:20266100000000000000000000000000000000000000000000000000000000000000000059
:0926810000000000000000000050
:20268a00080000000000000000000000000000000000000000000000000000000000000028
:0a26aa000000000000000000000026
:2026b400800000000000000000000000000000000000000000000000000000000000000086
:0926d400000000000000000000fd
:2026dd000000000000000000000000000000000000000000000000000000000000000000dd
:0a26fd0000000000000000000000d3
:202707000002000000000000000000000000000000000000000000000000000000000000b0
:09272700000000000000000000a9
:20273000040000000000000000000000000000000000000000000000000000000000000085
:0a275000000000000000000000007f
:20275a0000000000000000000000000000000000000000000000000000000000000000005f
:09277a0000000000000000000056
:20278300000000000000000000000000000000000000000000000000000000000000000036
:0a27a300000000000000000000002c
:2027ad0000000000000000000000000000000000000000000000000000000000000000000c
:0927cd0000000000000000000003
:2027d6000000000000000000000000000000000000000000000000000000000000000000e3
:0a27f60000000000000000000000d9
:202800000000000000000000000000000000000000000000000000000000000000000000b8
:09282000000000000000000000af
:2028290000000000000000000000000000000000000000000000000000000000000000008f
:0a2849000000000000000000000085
:20285300000200000000000000000000000000000000000000000000000000000000000063
:092873000000000000000000005c
:20287c0000000000000000000000000000000000000000000000000000000000000000003c
:0a289c000000000000000000000032
:2028a600000000000000000000000000000000000000000000000000000000000000000012
:0928c60000000000000000000009
:2028cf000000200000000000000000000000000000000000000000000000000000000000c9
:0a28ef0000000000000000000000df
:2028f9000000000000000000000000000000000000000000000000000000000000000000bf
:09291900000000000000000000b5
:20292200000000000000000000000000000000000000000000000000000000000000000095
:0a294200000000000000000000008b
:20294c0000000000000000000000000000000000000000000000000000000000000000006b
:09296c0000000000000000000062
:20297500000000000000000000000000000000000000000000000000000000000000000042
:0a2995000000000000000000000038
:20299f00000000000000000000000000000000000400000000000000000000000000000014
:0929bf000000000000000000000f
:2029c8000000000000000000000000000000000000000000000000000000000000000000ef
:0a29e80000000000000000000000e5
:2029f2000000000000000000000000000000000000000000000000000000000000000000c5
:092a1200000000000000000000bb
:202a1b0000000000000000000000000000000000000000000000000000000000000000009b
:0a2a3b000000000000000000000091
:202a4500000000000000000000000000000000000000000000000000000000000000000071
:092a650000000000000000000068
:202a6e00000000000000000000000000000000000000000000000000000000000000000048
:0a2a8e00000000000000000000003e
:202a980000000000000000000000000000000000000000000000000000000000000000001e
:092ab80000000000000000000015
:202ac1000000000000000000000000000000000000000000000000000000000000000000f5
:0a2ae10000000000000000000000eb
:202aeb000002000000000000000000000000000000000000000000000000000000000000c9
:092b0b00000000000000000000c1
:202b14000000000000000000000000000000000000000000000000000000000000000000a1
:0a2b34000000000000000000000097
:202b3e00000000000000000000000000000000000000000000000000000000000000000077
:092b5e000000000000000000006e
:202b670000002000000000000000000000000000000000000000000000000000000000002e
:0a2b87000000000000000000000044
:202b9100000000000000000000000000000000000000000000000000000000000000000024
:092bb1000000000000000000001b
:202bba000000000000000000000000000000000000000000000000000000000000000000fb
:0a2bda0000000000000000000000f1
:202be4000000000000000000000000000000000000000000000000000000000000000000d1
:092c0400000000000000000000c7
:202c0d000000000000000000000000000000000000000000000000000000000000000000a7
:0a2c2d00000000000000000000009d
:202c370000000000000000000000000000000000000000000000000000000000000000007d
:092c570000000000000000000074
:202c6000000000000000000000000000000000000000000000000000000000000000000054
:0a2c8000000000000000000000004a
:202c8a0000000000000000000000000000000000000000000000000000000000000000002a
:092caa0000000000000000000021
:202cb300000000000000000000000000000000000000000000000000000000000000000001
:0a2cd30000000000000000000000f7
:202cdd000000000000000000000000000000000000000000000000000000000000000000d7
:092cfd00000000000000000000ce
:202d06000000000000000000000000000000000000000000000000000000000000000000ad
:0a2d260000000000000000000000a3
:202d3000000000000000000000000000000000000000000000000000000000000000000083
:092d50000000000000000000007a
:202d590000000000000000000000000000000000000000000000000000000000000000005a
:0a2d79000000000000000000000050
:202d830000020000000000000000000000000000000000000000000000000000000000002e
:092da30000000000000000000027
:202dac00000000000000000000000000000000000000000000000000000000000000000007
:0a2dcc0000000000000000000000fd
:202dd6000000000000000000000000000000000000000000000000000000000000000000dd
:092df600000000000000000000d4
:202dff00000020000000000000000000000000000000000000000000000000000000000094
:0a2e1f0000000000000000000000a9
:202e2900000000000000000000000000000000000000000000000000000000000000000089
:092e490000000000000000000080
:202e5200000000000000000000000000000000000000000000000000000000000000000060
:0a2e72000000000000000000000056
:202e7c00000000000000000000000000000000000000000000000000000000000000000036
:092e9c000000000000000000002d
:202ea50000000000000000000000000000000000000000000000000000000000000000000d
:0a2ec5000000000000000000000003
:202ecf000000000000000000000000000000000004000000000000000000000000000000df
:092eef00000000000000000000da
:202ef8000000000000000000000000000000000000000000000000000000000000000000ba
:0a2f180000000000000000000000af
:022f22000000ad
:022f2400110298
:022f26000101a7
:202f2800000000000000000000000000000000000000000000000000000000000000000089
:092f480000000000000000000080
:202f5100000000000000000000000000000000000000000000000000000000000000000060
:0a2f71000000000000000000000056
:202f7b00000000000000000000000000000000000000000000000000000000000000000036
:092f9b000000000000000000002d
:202fa40000000000000000000000000000000000000000000000000000000000000000000d
:0a2fc4000000000000000000000003
:202fce000000000000000000000000000000000000000000000000000000000000000000e3
:092fee00000000000000000000da
:202ff7000000000000000000000000000000000000000000000000000000000000000000ba
:0a30170000000000000000000000af
:203021000000000000080000000000002000000000080000000000002000000000000080bf
:0930410000000000000200000084
:20304a00000000000000000000000000000000000000000000000000000000000000000066
:0a306a00000000000000000000005c
:2030740000000000000800000000000030000000000800000000000020000000000000805c
:0930940000000000000200000031
:20309d00000000000000000000000000000000000000000000000000000000000000000013
:0a30bd000000000000000000000009
:2030c7000000000000000000000000000000000000000000000000000000000000000000e9
:0930e700000000000000000000e0
:2030f0000000000000000000000000000000000800000000000000000000000000000000b8
:0a31100000000000000000000000b5
:20311a00000000000000000000000000000000000000000000000000000000000000000095
:09313a000000000000000000008c
:20314300000000000000000000000000000000080000000000000000000000000000000064
:0a3163000000000000000000000062
:20316d00000000000000000000000000000000000000000000000000000000000000000042
:09318d0000000000000000000039
:20319600000000000000000000000000000000040000000000000000000000000000000015
:0a31b600000000000000000000000f
:2031c0000000000000000000000000000000000000000000000000000000000000000000ef
:0931e000000000000000000000e6
:2031e9000000000000000000000000000000000000000000080000000000000000000000be
:0a32090000000000000000000000bb
:2032130000000000000000000000000000000000000000000000000000000000000000009b
:0932330000000000000000000092
:20323c00000000000000000000000000000000000000000000000000000000000000000072
:0a325c000000000000000000000068
:20326600000000000000000000000000000000000000000000000000000000000000000048
:093286000000000000000000003f
:20328f0000000000000000000000000000000000000000000000000000000000000000001f
:0a32af000000000000000000000015
:2032b9000002000000000000000000000000000000000000000000000000000000000000f3
:0932d900000000000000000000ec
:2032e2000000000000000000000000000000000000000000000000000000000000000000cc
:0a33020000000000000000000000c1
:20330c000000000000000000000000000000000000000000000000000000000000000000a1
:09332c0000000000000000000098
:20333500000020000000000000000000000000000000000000000000000000000000000058
:0a335500000000000000000000006e
:20335f0000000000000000000000000000000000000000000000000000000000000000004e
:09337f0000000000000000000045
:20338800000000000000000000000000000000000000000000000000000000000000000025
:0a33a800000000000000000000001b
:2033b2000000000000000000000000000000000000000000000000000000000000000000fb
:0933d200000000000000000000f2
:2033db000000000000000000000000000000000000000000000000000000000000000000d2
:0a33fb0000000000000000000000c8
:203405000000000000000000000000000000000000000000000000000000000000000000a7
:093425000000000000000000009e
:20342e0000000000000000000000000000000000000000000000000000000000000000007e
:0a344e000000000000000000000074
:20345800000000000000000000000000000000000000000000000000000000000000000054
:093478000000000000000000004b
:2034810000000000000000000000000000000000000000000000000000000000000000002b
:0a34a1000000000000000000000021
:2034ab00000000000000000000000000000000000000000000000000000000000000000001
:0934cb00000000000000000000f8
:2034d4000000000000000000000000000000000000000000000000000000000000000000d8
:0a34f40000000000000000000000ce
:2034fe000000000000000000000000000000000000000000000000000000000000000000ae
:09351e00000000000000000000a4
:20352700000000000000000000000000000000000000000000000000000000000000000084
:0a354700000000000000000000007a
:20355100000200000000000000000000000000000000000000000000000000000000000058
:0935710000000000000000000051
:20357a00000000000000000000000000000000000000000000000000000000000000000031
:0a359a000000000000000000000027
:2035a400000000000000000000000000000000000000000000000000000000000000000007
:0935c400000000000000000000fe
:2035cd000000200000000000000000000000000000000000000000000000000000000000be
:0a35ed0000000000000000000000d4
:2035f7000000000000000000000000000000000000000000000000000000000000000000b4
:09361700000000000000000000aa
:2036200000000000000000000000000000000000000000000000000000000000000000008a
:0a3640000000000000000000000080
:20364a00000000000000000000000000000000000000000000000000000000000000000060
:09366a0000000000000000000057
:20367300000000000000000000000000000000000000000000000000000000000000000037
:0a369300000000000000000000002d
:20369d0000000000000000000000000000000000000000000000000000000000000000000d
:0936bd0000000000000000000004
:2036c6000000000000000000000000000000000000000000000000000000000000000000e4
:0a36e60000000000000000000000da
:2036f0000000000000000000000000000000000000000000000000000000000000000000ba
:09371000000000000000000000b0
:20371900000000000000000000000000000000000000000008000000000000000000000088
:0a3739000000000000000000000086
:20374300000000000000000000000000000000000000000000000000000000000000000066
:093763000000000000000000005d
:20376c0000000000000000000000000000000000000000000000000000000000000000003d
:0a378c000000000000000000000033
:20379600000000000000000000000000000000000000000000000000000000000000000013
:0937b6000000000000000000000a
:2037bf000000000000000000000000000000000000000000000000000000000000000000ea
:0a37df0000000000000000000000e0
:2037e9000002000000000000000000000000000000000000000000000000000000000000be
:09380900000000000000000000b6
:20381200000000000000000000000000000000000000000000000000000000000000000096
:0a383200000000000000000000008c
:20383c0000000000000000000000000000000000000000000000000000000000000000006c
:09385c0000000000000000000063
:20386500000020000000000000000000000000000000000000000000000000000000000023
:0a3885000000000000000000000039
:20388f00000000000000000000000000000000000000000000000000000000000000000019
:0938af0000000000000000000010
:2038b8000000000000000000000000000000000000000000000000000000000000000000f0
:0a38d80000000000000000000000e6
:2038e2000000000000000000000000000000000000000000000000000000000000000000c6
:09390200000000000000000000bc
:20390b0000000000000000000000000000000000000000000000000000000000000000009c
:0a392b000000000000000000000092
:20393500000000000000000000000000000000000000000000000000000000000000000072
:0939550000000000000000000069
:20395e00000000000000000000000000000000000000000000000000000000000000000049
:0a397e00000000000000000000003f
:203988004000000000000000000000000000000000000000000000000000000000000000df
:0939a80000000000000000000016
:2039b1000000200000000000000000000000000000000000000000000000000000000000d6
:0a39d10000000000000000000000ec
:2039db000000000000000000000000000000000000000000000000000000000000000000cc
:0939fb00000000000000000000c3
:203a040008000000000000000000000000000000000000000000000000000000000000009a
:0a3a24000000000000000000000098
:203a2e008f00000000000000000000000000000000000000000000000000000000000000e9
:093a4e000000000000000000006f
:203a570000e00000000000000000000000000000000000000000000000000000000000006f
:0a3a77000000000000000000000045
:203a810000010000000000000000000000000000000000000800000000000000000000001c
:093aa1000000000000000000001c
:203aaa0000000000000000000000000000000000000000000080000000000000000000007c
:0a3aca0000000000000000000000f2
:203ad4000000000000000000000000000000000000000000000000000000000000000000d2
:093af400000000000000000000c9
:203afd00040020000000000000000000000000000000000000000000000000000000000085
:0a3b1d00000000000000000000009e
:203b270000000000000000000000000000000000000000000000000000000000000000007e
:093b470000000000000000000075
:203b5000000000000000000000000000000000000000000000000000000000000000000055
:0a3b7000000000000000000000004b
:203b7a00000400000000000000000000000000000000000000000000000000000000000027
:093b9a0000000000000000000022
:203ba300080280000000000000000000000000000000000000000000000000000000000078
:0a3bc30000000000000000000000f8
:203bcd00006800000000000000000000000000000000000000000000000000000000000070
:093bed00000000000000000000cf
:203bf6000000000000000000000000000000000000000000000000000000000000000000af
:0a3c160000000000000000000000a4
:203c2000000000000000000000000000000000000000000000000000000000000000000084
:093c40000000000000000000007b
:203c4900000000000000000000000000000000000000000008000000000000000000000053
:0a3c69000000000000000000000051
:203c7300000000000000000000000000000000000000000000000000000000000000000031
:093c930000000000000000000028
:203c9c00000000000000000000000000000000000000000000000000000000000000000008
:0a3cbc0000000000000000000000fe
:203cc6000000000000000000000000000000000000000000000000000000000000000000de
:093ce600000000000000000000d5
:203cef000000000000000000000000000000000000000000000000000000000000000000b5
:0a3d0f0000000000000000000000aa
:203d1900000200000000000000000000000000000000000000000000000000000000000088
:093d390000000000000000000081
:203d4200000000000000000000000000000000000000000000000000000000000000000061
:0a3d62000000000000000000000057
:203d6c00000000000000000000000000000000000000000000000000000000000000000037
:093d8c000000000000000000002e
:203d95000000200000000000000000000000000000000000000000000000000000000000ee
:0a3db5000000000000000000000004
:203dbf000000000000000000000000000000000000000000000000000000000000000000e4
:093ddf00000000000000000000db
:203de8000000000000000000000000000000000000000000000000000000000000000000bb
:0a3e080000000000000000000000b0
:203e1200000000000000000000000000000000000000000000000000000000000000000090
:093e320000000000000000000087
:203e3b00000000000000000000000000000000000000000000000000000000000000000067
:0a3e5b00000000000000000000005d
:203e650000000000000000000000000000000000000000000000000000000000000000003d
:093e850000000000000000000034
:203e8e00000000000000000000000000000000000000000000000000000000000000000014
:0a3eae00000000000000000000000a
:203eb8000000000000000000000000000000000000000000000000000000000000000000ea
:093ed800000000000000000000e1
:203ee1000000200000000000000000000000000000000000000000000000000000000000a1
:0a3f010000000000000000000000b6
:203f0b00000000000000000000000000000000000000000000000000000000000000000096
:093f2b000000000000000000008d
:203f340000000000000000000000000000000000000000000000000000000000000000006d
:0a3f54000000000000000000000063
:203f5e00000000000000000000000000000000000000000000000000000000000000000043
:093f7e000000000000000000003a
:203f870000000000000000000000000000000000000000000000000000000000000000001a
:0a3fa7000000000000000000000010
:203fb1000000000000000000000000000000000000000000000000000000000000000000f0
:093fd100000000000000000000e7
:203fda000000000000000000000000000000000000000000000000000000000000000000c7
:0a3ffa0000000000000000000000bd
:2040040000000000000000000000000000000000000000000000000000000000000000009c
:0940240000000000000000000093
:20402d0000002400000000000000000000000000000000000000000000000000000000004f
:0a404d000000000000000000000069
:20405700000000000000000000000000000000000000000000000000000000000000000049
:0940770000000000000000000040
:20408000000000000000000000000000000000000000000000000000000000000000000020
:0a40a0000000000000000000000016
:2040aa000000000000000000000000000000000000000000000000000000000000000000f6
:0940ca00000000000000000000ed
:2040d3000800000000000000000000000000000000000000000000000000000000000000c5
:0a40f30000000000000000000000c3
:2040fd000000000000000000000000000000000000000000000000000000000000000000a3
:09411d0000000000000000000099
:20412600000000000000000070000000000000000000000000000000000000000000000009
:0a414600000000000000000000006f
:2041500000000000000000000000000000000000000000000000000000000000000000004f
:0941700000000000000000000046
:2041790001000000000000000000000000000000000000000800000000000000000000001d
:0a419900000000000000000000001c
:2041a3000000000000000000000000000000000000000000000000000000000000000000fc
:0941c300000000000000000000f3
:2041cc000000000000000000000000000000000000000000000000000000000000000000d3
:0a41ec0000000000000000000000c9
:2041f6000000000000000000000000000000000000000000000000000000000000000000a9
:094216000000000000000000009f
:20421f0000000000000000000000000000000000000000000000000000000000000000007f
:0a423f000000000000000000000075
:20424900000200000000000000000000000000000000000000000000000000000000000053
:094269000000000000000000004c
:2042720000000000000000000000000000000000000000000000000000000000000000002c
:0a4292000000000000000000000022
:20429c00000000000000000000000000000000000000000000000000000000000000000002
:0942bc00000000000000000000f9
:2042c5000000200000000000000000000000000000000000000000000000000000000000b9
:0a42e50000000000000000000000cf
:2042ef000000000000000000000000000000000000000000000000000000000000000000af
:09430f00000000000000000000a5
:20431800000000000000000000000000000000000000000000000000000000000000000085
:0a433800000000000000000000007b
:2043420000000000000000000000000000000000000000000000000000000000000000005b
:0943620000000000000000000052
:20436b00010000000000000000000000000000000000000000000000000000000000000031
:0a438b000000000000000000000028
:20439500000000000000000000000000000000000000000000000000000000000000000008
:0943b500000000000000000000ff
:2043be000000000000000000000000000000000000000000000000000000000000000000df
:0a43de0000000000000000000000d5
:2043e8000000000000000000000000000000000000000000000000000000000000000000b5
:09440800000000000000000000ab
:2044110000000000000000000000000000000000000000000000000000000000000000008b
:0a4431000000000000000000000081
:20443b00000000000000000000000000000000000000000000000000000000000000000061
:09445b0000000000000000000058
:20446400000000000000000000000000000000000000000000000000000000000000000038
:0a448400000000000000000000002e
:20448e0000000000000000000000000000000000000000000000000000000000000000000e
:0944ae0000000000000000000005
:2044b7000000000000000000000000000000000000000000000000000000000000000000e5
:0a44d70000000000000000000000db
:2044e1000002000000000000000000000000000000000000000000000000000000000000b9
:09450100000000000000000000b1
:20450a00000000000000000000000000000000000000000000000000000000000000000091
:0a452a000000000000000000000087
:20453400000000000000000000000000000000000000000000000000000000000000000067
:094554000000000000000000005e
:20455d0000002000000000000000000000000000000000000000000000000000000000001e
:0a457d000000000000000000000034
:20458700000000000000000000000000000000000000000000000000000000000000000014
:0945a7000000000000000000000b
:2045b0000000000000000000000000000000000000000000000000000000000000000000eb
:0a45d00000000000000000000000e1
:2045da000000000000000000000000000000000000000000000000000000000000000000c1
:0945fa00000000000000000000b8
:20460300000000000000000000000000000000000000000000000000000000000000000097
:0a462300000000000000000000008d
:20462d0000000000000000000000000000000000000000000000000000000000000000006d
:09464d0000000000000000000064
:20465600000000000000000000000000000000000000000000000000000000000000000044
:0a467600000000000000000000003a
:02468000000038
:02468200110322
:02468400010132
:20468600000000000000000000000000000000000000000000000000000000000000000014
:0946a6000000000000000000000b
:2046af000000000000000000000000000000000000000000000000000000000000000000eb
:0a46cf0000000000000000000000e1
:2046d900000000000000000020000000000000800000000020000000000000800000000081
:0946f900000200000000000000b6
:20470200000000000000000000000000000000000000000000000000000000000000000097
:0a472200000000000000000000008d
:20472c00000000000000000000000000000000000000000000000000000000000000000865
:09474c0000000000000000000064
:20475500000000000000000000000000000000000000000000000000000000000000000044
:0a477500000000000000000000003a
:20477f000000000000000000000000002000000000000000000000000000000000000000fa
:09479f0000000000000000000011
:2047a8000000000000000800000000000000000000000000000000000000000000000000e9
:0a47c80000000000000000000000e7
:2047d20000000000000400000000004000000000000400000000000010000000000000402f
:0947f200000000000003000000bb
:2047fb0000000000000000000000000000000000000000000000000000000000000000009e
:0a481b000000000000000000000093
:20482500000000000000000000000000000000000000000000000000000000000000000073
:094845000000000000000000006a
:20484e0000000000000000000000000000000000000000000000000000000000000000004a
:0a486e000000000000000000000040
:20487800000000000000000000000000000000000000000000000000000000000000000020
:0948980000000000000000000017
:2048a1000000000000000000020000000000000000000000020000000000000800000000eb
:0a48c10080002000000008000080c5
:2048cb000000000000080000000000082000000010080000000000002000000000000080e5
:0948eb00000000000000000000c4
:2048f40000000000000008000000000000000000000000000000000000000000000000009c
:0a4914000000000000000000000099
:20491e0000000000000000000000000000000000003026c003000000000000000000000060
:09493e0000000000000000000070
:204947000000000000000000000000000000000000004e20003000000000000000000000b2
:0a4967000000000000000000000046
:204971000000000000000000000000000000000200214000000000000000000000000000c3
:094991000000000000000000001d
:20499a000000000000000000000000000000000000000000000000000000000000000000fd
:0a49ba0000000000000000000000f3
:2049c40000000000000000000000000000000000003b440000000000000000000000000054
:0949e400000000000000000000ca
:2049ed00000000000000000000000000000000000000403800000000000000000000000032
:0a4a0d00000000000000000000009f
:204a170000020000000000000000000000000002003402c000000000000000000000000085
:094a370000000000000000000076
:204a4000000000000000000000000000000000000000400400000000000000000000000012
:0a4a6000000000000000000000004c
:204a6a0000000000000000000000000000000000002802c000000000000000000000000042
:094a8a0000000000000000000023
:204a930000002000000000000000000000000000000040000800000000000000000000009b
:0a4ab30000000000000000000000f9
:204abd000000000000000000000000000000000200240000000000000000000000000000b3
:094add00000000000000000000d0
:204ae6000000000000000000000000000000000000000000000000000000000000000000b0
:0a4b06000010000000000000000095
:204b100000000000000000000000000000000000003c0000810000000000000000000000c8
:094b30000000000000000000007c
:204b39000000000000000000000000000000000000000000007000000000000000000000ec
:0a4b59000000000000000000000052
:204b630000000000000000000000000000000002033f42008000000000000000000000002c
:094b830000000000000000000029
:204b8c000000000000000000000000000000000000004000001000000000000000000000b9
:0a4bac0000000000000000000000ff
:204bb60000000943c001400000000000000000000000000000000000000000000000000092
:094bd60080000000000000000056
:204bdf00000000403c0020000000000000000000000000000000000000000000000000001a
:0a4bff0000000000000000000000ac
:204c09008000000fed7003800000000000000002000000000000000000000000000000001a
:094c290000000000000000000082
:204c320000000000ff37c0000000000000000000000000000000000000000000000000006c
:0a4c52000000000000000000000058
:204c5c000000000000000380000000000000000000000000000000000000000000000000b5
:094c7c000000000000000000002f
:204c850000000000000000000000000000000200000000000000000000000000000000000d
:0a4ca5000000000000000000000005
:204caf0000020000000004000000000000000042000000000000000000000000000000009d
:094ccf00000000000000000000dc
:204cd800000000000000003800000000000002000000000000000000000000000000000082
:0a4cf80000000000000000000000b2
:204d020000240000000000000000000000000000000000000000000000000000000000006d
:094d220000000000000000000088
:204d2b00000050000000000000000000000000000000000000000000000000000000000018
:0a4d4b00000000000000000000005e
:204d55000e00000ff0002000000000000000000100002000030000000000000000000000ed
:094d750000000000000000000035
:204d7e0008800008ff001e0000000000000000000000060000200000000000000000000042
:0a4d9e00000000000000000000000b
:204da80080000000000000000000000000000000000000100000000000000000000000005b
:094dc800000000000000000000e2
:204dd100000000000000000000000000000000000000000280000000000000000000000040
:0a4df10000000000000000000000b8
:204dfb001242008f00000010000000000000040000000000000000000000000000000000a1
:094e1b000000000000000000008e
:204e240004038000f0700002800000000000010001000000001000000000000000000000f3
:0a4e44000000000000000000000064
:204e4e00000000000000000000000000000000000000000002000000000000000000000042
:094e6e000000000000000000003b
:204e77000806000000000000000000000000000000000000003000000000000000000000dd
:0a4e97000000000000000000000011
:204ea100804000000000000000000000000000000000000000000000000000000000000031
:094ec100000000000000000000e8
:204eca00000380000000000000000000000000000000000000000000000000000000000045
:0a4eea0000000000000000000000be
:204ef4000b0000000000000000000000001000000000020000000000000000000000000081
:094f140000000000000000000094
:204f1d0004b0000000000000000000000001c00000000000000000000000000000000000ff
:0a4f3d00000000000000000000006a
:204f4700000200000000000000000000011000000000000000000000000000000000000037
:094f670000000000000000000041
:204f70000000000000000000000000000001c0000000000000000000000000000000000060
:0a4f90000000000000000000000017
:204f9a00000000000000000000000000000a0000000000008000000000000000000000006d
:094fba00000000000000000000ee
:204fc300000630000000000000000000000010000000000000000000000000000000000088
:0a4fe30000000000000000000000c4
:204fed000b0000000000000000000000000000000000000000000000000000000000000099
:09500d000000000000000000009a
:2050160008d30000000000000000000000000000000000000000000000000000000000009f
:0a5036000000000000000000000070
:20504000800000000000000000002a83c500000000000000810000000000000000000000dd
:0950600000000000000000000047
:20506900000000000000000000002294d980000000000000007000000000000000000000a8
:0a508900000000000000000000001d
:20509300000200000000000000000140d0000000000000008000000000000000000000006a
:0950b300000000000000000000f4
:2050bc000400000000000000000012bd6c0000000000000000100000000000000000000085
:0a50dc0000000000000000000000ca
:2050e600003000000000000000011542f00d00000000000004000000000000000000000021
:09510600000000000000000000a0
:20510f00080040000000000000000295ec1010000000000000000000000000000000000095
:0a512f000000000000000000000076
:20513900980000000000000000010140fd0b00000000000000000000000000000000000074
:095159000000000000000000004d
:205162000000000000000000000002bddf000000000014000000000000000000000000007b
:0a5182000000000000000000000023
:20518c000f00000000000000000000000010000000000000000000000000000000000000e4
:0951ac00000000000000000000fa
:2051b5000410000000000000000000000001c0000000000000000000000000000000000005
:0a51d50000000000000000000000d0
:2051df00004200000000000000200140f01e000000000000000000000000000000000000ff
:0951ff00000000000000000000a7
:205208000003800000000000030002bd6d01c0000000000000000000000000000000000013
:0a522800000000000000000000007c
:20523200183000000000000000012a83950a000000000000000000000000000000000000c7
:0952520000000000000000000053
:20525b00000070000000000000000295e880100000000000000000000000000000000000b4
:0a527b000000000000000000000029
:205285000b0000000000000000000141f90a000000000000030000000000000000000000b6
:0952a50000000000000000000000
:2052ae000870000000000000000042bd4b0010000000000000b0000000000000000000005e
:0a52ce0000000000000000000000d6
:2052d8008040000000000000000000000000000000000000000000000000000000000000f6
:0952f800000000000000000000ad
:20530100000380000000000000000000000000000000000000000000000000000000000009
:0a5321000000000000000000000082
:20532b00000200000000000000010142f580000000000000000000000000000000000000a7
:09534b0000000000000000000059
:205354000400000000000000000002bd7dd800000000000000100000000000000000000011
:0a537400000000000000000000002f
:20537e0000000000000000000000000000000000000000000000000000000000000000000f
:09539e0000000000000000000006
:2053a7000000000000000000000000000000000000000000000000000000000000000000e6
:0a53c70000000000000000000000dc
:2053d1000000000000000000000000000000000000000000000000000000000000000000bc
:0953f100000000000000000000b3
:2053fa00000000000000000000000000000000000000000000000000000000000000000093
:0a541a000000000000000000000088
:20542400000000000000000000000000000000000000000000000000000000000000000068
:095444000000000000000000005f
:20544d0000000000000000000000000000000000000000000000000000000000000000003f
:0a546d000000000000000000000035
:205477000034000000000020000000000000000000000000000000000000000000000000c1
:095497000000000000000000000c
:2054a0000000400000000000000000000000000000000000000000000000000000000000ac
:0a54c00000000000000000000000e2
:2054ca00002c00000000000000000000000000000000000000000000000000000000000096
:0954ea00000000000000000000b9
:2054f300000000000000000000000000000000000000000000000000000000000000000099
:0a551300000000000000000000008e
:20551d000e0000000000000000000000000000000000000000000000000000000000000060
:09553d0000000000000000000065
:2055460008a00000000000000000000000000000000000000000000000000000000000009d
:0a556600000000000000000000003b
:2055700080000000000000000000000000000000000000000000000000000000000000009b
:0955900000000000000000000012
:205599000000000000000000000000000000000000000000000000000000000000000000f2
:0a55b90000000000000000000000e8
:2055c3000000000000000000000000000000000000000000000000000000000000000000c8
:0955e300000000000000000000bf
:2055ec0004000000000000000000000000000000000000000000000000000000000000009b
:0a560c000000000000000000000094
:20561600000000000000000000000000000000000000000000000000000000000000000074
:095636000000000000000000006b
:20563f00080000000000000000000000000000000000000000000000000000000000000043
:0a565f000000000000000000000041
:20566900980000000000000000000000000000000000000000000000000000000000000089
:0956890000000000000000000018
:20569200000380000000000000000000000000000000000000000000000000000000000075
:0a56b20000000000000000000000ee
:2056bc000a00000000000000000000000000000000000000000000000000000000000000c4
:0956dc00000000000000000000c5
:2056e5000476800000000000000000000000000000000000000000000000000000000000ab
:0a570500000000000000000000009a
:20570f00003a00000000000000000000000000400000000000000000000000000000000000
:09572f0000000000000000000071
:2057380000000000000000000000000000000400000000000000000000000000000000004d
:0a5758000000000000000000000047
:20576200000000000000000000000000000000000000000000000000000000000000000027
:095782000000000000000000001e
:20578b000000300000000000000000000000000000000000000000000000000000000000ce
:0a57ab0000000000000000000000f4
:2057b5000e0000000000000000000000000080000000000000000000000000000000000046
:0957d500000000000000000000cb
:2057de000853800000000000000000000000000000000000000000000000000000000000d0
:0a57fe0000000000000000000000a1
:20580800800000000000000000000000000000000000000000000000000000000000000000
:0958280000000000000000000077
:20583100000000000000000000000000000000000000000000000000000000000000000057
:0a585100000000000000000000004d
:20585b0010000000000000000000000000000000000000008000000000000000000000009d
:09587b0000000000000000000024
:20588400040000000000000000000000000000000000000000000000000000000000000000
:0a58a40000000000000000000000fa
:2058ae000000000000000002000000000000000000000000000000000000000000000000d8
:0958ce00000000000000000000d1
:2058d7000000000000000000000000000000000000000000000000000000000000000000b1
:0a58f70000000000000000000000a7
:20590100000000000000000000000000000000000000000000000000000000000000000086
:095921000000000000000000007d
:20592a0000000000000000000000000000000000000000000000000000000000000000005d
:0a594a000000000000000000000053
:20595400000000000000000000000000000000000000000000000000000000000000000033
:095974000000000000000000002a
:20597d0000000000000000000000000000000000000000000000000000000000000000000a
:0a599d000000000000000000000000
:2059a7000002000000000000000000000000000000000000000000000000000000000000de
:0959c700000000000000000000d7
:2059d0000000000000000000000000000000000000000000000000000000000000000000b7
:0a59f00000000000000000000000ad
:2059fa0000000000000000000000000000000000000000000000000000000000000000008d
:095a1a0000000000000000000083
:205a2300000030000000000000000000000000000000000000000000000000000000000033
:0a5a43000000000000000000000059
:205a4d00000000000000000000000000000000000000000000000000000000000000000039
:095a6d0000000000000000000030
:205a7600000000000000000000000000000000000000000000000000000000000000000010
:0a5a96000000000000000000000006
:205aa0000000000000000000000000000000000000000000000000000000000000000000e6
:095ac000000000000000000000dd
:205ac9000000000000000000000000000000000000000000000000000000000000000000bd
:0a5ae90000000000000000000000b3
:205af300000200000000000000000000000000000000000000000000000000000000000091
:095b130000000000000000000089
:205b1c00000000000000000000000000000000000000000000000000000000000000000069
:0a5b3c00000000000000000000005f
:205b460000000000000000000000000000000000000000000000000000000000000000003f
:095b660000000000000000000036
:205b6f00000000000000000000000000000000000000000000000000000000000000000016
:0a5b8f00000000000000000000000c
:205b990000000000000000200000000000000040000000000000000000000000000000008c
:095bb900000000000000000000e3
:205bc2000000000000000000000000000000000000000000000000000000000000000000c3
:0a5be20000000000000000000000b9
:205bec00000000000000000000000000000000000000000000000000000000000000000099
:095c0c000000000000000000008f
:205c150000000000000000000000000000000000000000000000000000000000000000006f
:0a5c35000000000000000000000065
:205c3f00000200000000000000000000000000000000000000000000000000000000000043
:095c5f000000000000000000003c
:205c680000000000000000000000000000000000000000000000000000000000000000001c
:0a5c88000000000000000000000012
:205c92000000000000000000000000000000000000000000000000000000000000000000f2
:095cb200000000000000000000e9
:205cbb00000030000000000000000000000000000000000000000000000000000000000099
:0a5cdb0000000000000000000000bf
:205ce5000b380000000000000000000000000000000000000000000000000000000000005c
:095d050000000000000000000095
:205d0e000880000000000000000000000000000000000000000000000000000000000000ed
:0a5d2e00000000000000000000006b
:205d380080400000000000000000000000000000000000000000000000000000000000008b
:095d580000000000000000000042
:205d610000070000000000000000000000000000000000000000000000000000000000001b
:0a5d81000000000000000000000018
:205d8b00000000000000000000000000000000000000000080000000000000000000000078
:095dab00000000000000000000ef
:205db4000400000000000000000000000000000000000000000000000000000000000000cb
:0a5dd40000000000000000000000c5
:025dde000000c3
:035de00062003f1f
:035de300720080cb
:025de6001100aa
:035de80082000036
:025deb000103b2
:085ded000000000000000000ae
:085df5000000000000000000a6
:085dfd0000000000000000009e
:085e0500000000000000000095
:0261ed000000b0
:0361ef00820080ab
:0261f2000103a7
:0861f4000000000000000000a3
:0861fc0000000000000000009b
:08620400000000000000000092
:08620c0000000000000000008a
:0265f4000000a5
:0265f600110191
:0365f8008200001e
:0265fb0001039a
:0865fd00000000000000000096
:0866050000000000000000008d
:08660d00000000000000000085
:0866150000000000000000007d
:0269fd00000098
:0369ff0082008093
:026a020001038e
:086a040000000000000000008a
:086a0c00000000000000000082
:086a140000000000000000007a
:086a1c00000000000000000072
:026e040000008c
:026e0600110277
:036e080082000005
:026e0b00010381
:086e0d0000000000000000007d
:086e1500000000000000000075
:086e1d0000000000000000006d
:086e2500000000000000000065
:02720d0000007f
:03720f008200807a
:02721200010376
:08721400000000000000000072
:08721c0000000000000000006a
:08722400000000000000000062
:08722c0000000000000000005a
:02761400000074
:0276160011035e
:03761800820000ed
:02761b00010369
:08761d0000000000151400003c
:0876250000000000101100003c
:08762d0000000000150400003c
:08763500000000001411000028
:08763d0000000000150400002c
:0876450000000000101000001d
:08764d0000000000151400000c
:087655000000000014410000d8
:08765d00000000000400000021
:087665000000000014110000f8
:08766d000000000005400000d0
:087675000000000010540000a9
:08767d00000000000400000001
:087685000000000004000000f9
:08768d000000000004000000f1
:087695000000000004000000e9
:08769d0000000000145500007c
:0876a5000000000010040000c9
:0876ad000000000015100000b0
:0876b500000000001455000064
:0876bd0000000000145500005c
:0876c5000000000014050000a4
:0876cd00000000001411000090
:0876d500000000001410000089
:0876dd0000000000151400007c
